{
  "contractName": "Certificates",
  "abi": [
    {
      "inputs": [],
      "stateMutability": "nonpayable",
      "type": "constructor"
    },
    {
      "anonymous": false,
      "inputs": [
        {
          "indexed": false,
          "internalType": "uint256",
          "name": "id",
          "type": "uint256"
        },
        {
          "indexed": false,
          "internalType": "string",
          "name": "name",
          "type": "string"
        },
        {
          "indexed": false,
          "internalType": "string",
          "name": "urlSite",
          "type": "string"
        },
        {
          "indexed": false,
          "internalType": "string",
          "name": "category",
          "type": "string"
        },
        {
          "indexed": false,
          "internalType": "string",
          "name": "image",
          "type": "string"
        },
        {
          "indexed": false,
          "internalType": "address payable",
          "name": "owner",
          "type": "address"
        },
        {
          "indexed": false,
          "internalType": "string",
          "name": "date",
          "type": "string"
        }
      ],
      "name": "CreateCertificate",
      "type": "event"
    },
    {
      "inputs": [],
      "name": "count",
      "outputs": [
        {
          "internalType": "uint256",
          "name": "",
          "type": "uint256"
        }
      ],
      "stateMutability": "view",
      "type": "function",
      "constant": true
    },
    {
      "inputs": [],
      "name": "syatemName",
      "outputs": [
        {
          "internalType": "string",
          "name": "",
          "type": "string"
        }
      ],
      "stateMutability": "view",
      "type": "function",
      "constant": true
    },
    {
      "inputs": [
        {
          "internalType": "string",
          "name": "name",
          "type": "string"
        },
        {
          "internalType": "string",
          "name": "urlSite",
          "type": "string"
        },
        {
          "internalType": "string",
          "name": "image",
          "type": "string"
        },
        {
          "internalType": "string",
          "name": "category",
          "type": "string"
        },
        {
          "internalType": "string",
          "name": "date",
          "type": "string"
        }
      ],
      "name": "createCertificate",
      "outputs": [],
      "stateMutability": "nonpayable",
      "type": "function"
    },
    {
      "inputs": [
        {
          "internalType": "uint256",
          "name": "id",
          "type": "uint256"
        }
      ],
      "name": "fetchSingleItem",
      "outputs": [
        {
          "components": [
            {
              "internalType": "uint256",
              "name": "id",
              "type": "uint256"
            },
            {
              "internalType": "string",
              "name": "name",
              "type": "string"
            },
            {
              "internalType": "string",
              "name": "urlSite",
              "type": "string"
            },
            {
              "internalType": "string",
              "name": "category",
              "type": "string"
            },
            {
              "internalType": "string",
              "name": "image",
              "type": "string"
            },
            {
              "internalType": "address payable",
              "name": "owner",
              "type": "address"
            },
            {
              "internalType": "string",
              "name": "date",
              "type": "string"
            }
          ],
          "internalType": "struct Certificates.Certificate",
          "name": "",
          "type": "tuple"
        }
      ],
      "stateMutability": "view",
      "type": "function",
      "constant": true
    },
    {
      "inputs": [],
      "name": "getMyItemCreated",
      "outputs": [
        {
          "components": [
            {
              "internalType": "uint256",
              "name": "id",
              "type": "uint256"
            },
            {
              "internalType": "string",
              "name": "name",
              "type": "string"
            },
            {
              "internalType": "string",
              "name": "urlSite",
              "type": "string"
            },
            {
              "internalType": "string",
              "name": "category",
              "type": "string"
            },
            {
              "internalType": "string",
              "name": "image",
              "type": "string"
            },
            {
              "internalType": "address payable",
              "name": "owner",
              "type": "address"
            },
            {
              "internalType": "string",
              "name": "date",
              "type": "string"
            }
          ],
          "internalType": "struct Certificates.Certificate[]",
          "name": "",
          "type": "tuple[]"
        }
      ],
      "stateMutability": "view",
      "type": "function",
      "constant": true
    }
  ],
  "bytecode": "0x608060405260006001553480156200001657600080fd5b506040518060400160405280601381526020017f4365727469666963617465732053797374656d0000000000000000000000000081525060009080519060200190620000649291906200006b565b5062000180565b82805462000079906200014a565b90600052602060002090601f0160209004810192826200009d5760008555620000e9565b82601f10620000b857805160ff1916838001178555620000e9565b82800160010185558215620000e9579182015b82811115620000e8578251825591602001919060010190620000cb565b5b509050620000f89190620000fc565b5090565b5b8082111562000117576000816000905550600101620000fd565b5090565b7f4e487b7100000000000000000000000000000000000000000000000000000000600052602260045260246000fd5b600060028204905060018216806200016357607f821691505b602082108114156200017a57620001796200011b565b5b50919050565b611a2680620001906000396000f3fe608060405234801561001057600080fd5b50600436106100575760003560e01c806306661abd1461005c57806393c1b9f81461007a5780639e31e65514610098578063a2bf932a146100b6578063b3281e74146100e6575b600080fd5b610064610102565b6040516100719190610f20565b60405180910390f35b610082610108565b60405161008f9190610fd4565b60405180910390f35b6100a0610196565b6040516100ad919061120a565b60405180910390f35b6100d060048036038101906100cb919061126c565b6106dc565b6040516100dd9190611351565b60405180910390f35b61010060048036038101906100fb91906114a8565b610b58565b005b60015481565b60008054610115906115de565b80601f0160208091040260200160405190810160405280929190818152602001828054610141906115de565b801561018e5780601f106101635761010080835404028352916020019161018e565b820191906000526020600020905b81548152906001019060200180831161017157829003601f168201915b505050505081565b60606000600154905060008060005b83811015610246573373ffffffffffffffffffffffffffffffffffffffff16600260006001846101d5919061163f565b815260200190815260200160002060050160009054906101000a900473ffffffffffffffffffffffffffffffffffffffff1673ffffffffffffffffffffffffffffffffffffffff16141561023357600183610230919061163f565b92505b808061023e90611695565b9150506101a5565b5060008267ffffffffffffffff8111156102635761026261137d565b5b60405190808252806020026020018201604052801561029c57816020015b610289610e11565b8152602001906001900390816102815790505b50905060005b848110156106d1573373ffffffffffffffffffffffffffffffffffffffff16600260006001846102d2919061163f565b815260200190815260200160002060050160009054906101000a900473ffffffffffffffffffffffffffffffffffffffff1673ffffffffffffffffffffffffffffffffffffffff1614156106be57600060018261032f919061163f565b90506000600260008381526020019081526020016000209050806040518060e00160405290816000820154815260200160018201805461036e906115de565b80601f016020809104026020016040519081016040528092919081815260200182805461039a906115de565b80156103e75780601f106103bc576101008083540402835291602001916103e7565b820191906000526020600020905b8154815290600101906020018083116103ca57829003601f168201915b50505050508152602001600282018054610400906115de565b80601f016020809104026020016040519081016040528092919081815260200182805461042c906115de565b80156104795780601f1061044e57610100808354040283529160200191610479565b820191906000526020600020905b81548152906001019060200180831161045c57829003601f168201915b50505050508152602001600382018054610492906115de565b80601f01602080910402602001604051908101604052809291908181526020018280546104be906115de565b801561050b5780601f106104e05761010080835404028352916020019161050b565b820191906000526020600020905b8154815290600101906020018083116104ee57829003601f168201915b50505050508152602001600482018054610524906115de565b80601f0160208091040260200160405190810160405280929190818152602001828054610550906115de565b801561059d5780601f106105725761010080835404028352916020019161059d565b820191906000526020600020905b81548152906001019060200180831161058057829003601f168201915b505050505081526020016005820160009054906101000a900473ffffffffffffffffffffffffffffffffffffffff1673ffffffffffffffffffffffffffffffffffffffff1673ffffffffffffffffffffffffffffffffffffffff16815260200160068201805461060c906115de565b80601f0160208091040260200160405190810160405280929190818152602001828054610638906115de565b80156106855780601f1061065a57610100808354040283529160200191610685565b820191906000526020600020905b81548152906001019060200180831161066857829003601f168201915b5050505050815250508486815181106106a1576106a06116de565b5b60200260200101819052506001856106b9919061163f565b945050505b80806106c990611695565b9150506102a2565b508094505050505090565b6106e4610e11565b81600073ffffffffffffffffffffffffffffffffffffffff166002600083815260200190815260200160002060050160009054906101000a900473ffffffffffffffffffffffffffffffffffffffff1673ffffffffffffffffffffffffffffffffffffffff16141580156107b957503373ffffffffffffffffffffffffffffffffffffffff166002600083815260200190815260200160002060050160009054906101000a900473ffffffffffffffffffffffffffffffffffffffff1673ffffffffffffffffffffffffffffffffffffffff16145b6107f8576040517f08c379a00000000000000000000000000000000000000000000000000000000081526004016107ef9061177f565b60405180910390fd5b600260008481526020019081526020016000206040518060e001604052908160008201548152602001600182018054610830906115de565b80601f016020809104026020016040519081016040528092919081815260200182805461085c906115de565b80156108a95780601f1061087e576101008083540402835291602001916108a9565b820191906000526020600020905b81548152906001019060200180831161088c57829003601f168201915b505050505081526020016002820180546108c2906115de565b80601f01602080910402602001604051908101604052809291908181526020018280546108ee906115de565b801561093b5780601f106109105761010080835404028352916020019161093b565b820191906000526020600020905b81548152906001019060200180831161091e57829003601f168201915b50505050508152602001600382018054610954906115de565b80601f0160208091040260200160405190810160405280929190818152602001828054610980906115de565b80156109cd5780601f106109a2576101008083540402835291602001916109cd565b820191906000526020600020905b8154815290600101906020018083116109b057829003601f168201915b505050505081526020016004820180546109e6906115de565b80601f0160208091040260200160405190810160405280929190818152602001828054610a12906115de565b8015610a5f5780601f10610a3457610100808354040283529160200191610a5f565b820191906000526020600020905b815481529060010190602001808311610a4257829003601f168201915b505050505081526020016005820160009054906101000a900473ffffffffffffffffffffffffffffffffffffffff1673ffffffffffffffffffffffffffffffffffffffff1673ffffffffffffffffffffffffffffffffffffffff168152602001600682018054610ace906115de565b80601f0160208091040260200160405190810160405280929190818152602001828054610afa906115de565b8015610b475780601f10610b1c57610100808354040283529160200191610b47565b820191906000526020600020905b815481529060010190602001808311610b2a57829003601f168201915b505050505081525050915050919050565b6000855111610b9c576040517f08c379a0000000000000000000000000000000000000000000000000000000008152600401610b93906117eb565b60405180910390fd5b6000845111610be0576040517f08c379a0000000000000000000000000000000000000000000000000000000008152600401610bd790611857565b60405180910390fd5b6000835111610c24576040517f08c379a0000000000000000000000000000000000000000000000000000000008152600401610c1b906118c3565b60405180910390fd5b6000825111610c68576040517f08c379a0000000000000000000000000000000000000000000000000000000008152600401610c5f9061192f565b60405180910390fd5b60016000815480929190610c7b90611695565b91905055506040518060e0016040528060015481526020018681526020018581526020018381526020018481526020013373ffffffffffffffffffffffffffffffffffffffff16815260200182815250600260006001548152602001908152602001600020600082015181600001556020820151816001019080519060200190610d06929190610e64565b506040820151816002019080519060200190610d23929190610e64565b506060820151816003019080519060200190610d40929190610e64565b506080820151816004019080519060200190610d5d929190610e64565b5060a08201518160050160006101000a81548173ffffffffffffffffffffffffffffffffffffffff021916908373ffffffffffffffffffffffffffffffffffffffff16021790555060c0820151816006019080519060200190610dc1929190610e64565b509050507f7e5fdd01592a31b94f3dd3137f083144a5b919af1faa81c7d34ef0f8b1abe7be600154868685873387604051610e02979695949392919061195e565b60405180910390a15050505050565b6040518060e001604052806000815260200160608152602001606081526020016060815260200160608152602001600073ffffffffffffffffffffffffffffffffffffffff168152602001606081525090565b828054610e70906115de565b90600052602060002090601f016020900481019282610e925760008555610ed9565b82601f10610eab57805160ff1916838001178555610ed9565b82800160010185558215610ed9579182015b82811115610ed8578251825591602001919060010190610ebd565b5b509050610ee69190610eea565b5090565b5b80821115610f03576000816000905550600101610eeb565b5090565b6000819050919050565b610f1a81610f07565b82525050565b6000602082019050610f356000830184610f11565b92915050565b600081519050919050565b600082825260208201905092915050565b60005b83811015610f75578082015181840152602081019050610f5a565b83811115610f84576000848401525b50505050565b6000601f19601f8301169050919050565b6000610fa682610f3b565b610fb08185610f46565b9350610fc0818560208601610f57565b610fc981610f8a565b840191505092915050565b60006020820190508181036000830152610fee8184610f9b565b905092915050565b600081519050919050565b600082825260208201905092915050565b6000819050602082019050919050565b61102b81610f07565b82525050565b600082825260208201905092915050565b600061104d82610f3b565b6110578185611031565b9350611067818560208601610f57565b61107081610f8a565b840191505092915050565b600073ffffffffffffffffffffffffffffffffffffffff82169050919050565b60006110a68261107b565b9050919050565b6110b68161109b565b82525050565b600060e0830160008301516110d46000860182611022565b50602083015184820360208601526110ec8282611042565b915050604083015184820360408601526111068282611042565b915050606083015184820360608601526111208282611042565b9150506080830151848203608086015261113a8282611042565b91505060a083015161114f60a08601826110ad565b5060c083015184820360c08601526111678282611042565b9150508091505092915050565b600061118083836110bc565b905092915050565b6000602082019050919050565b60006111a082610ff6565b6111aa8185611001565b9350836020820285016111bc85611012565b8060005b858110156111f857848403895281516111d98582611174565b94506111e483611188565b925060208a019950506001810190506111c0565b50829750879550505050505092915050565b600060208201905081810360008301526112248184611195565b905092915050565b6000604051905090565b600080fd5b600080fd5b61124981610f07565b811461125457600080fd5b50565b60008135905061126681611240565b92915050565b60006020828403121561128257611281611236565b5b600061129084828501611257565b91505092915050565b600060e0830160008301516112b16000860182611022565b50602083015184820360208601526112c98282611042565b915050604083015184820360408601526112e38282611042565b915050606083015184820360608601526112fd8282611042565b915050608083015184820360808601526113178282611042565b91505060a083015161132c60a08601826110ad565b5060c083015184820360c08601526113448282611042565b9150508091505092915050565b6000602082019050818103600083015261136b8184611299565b905092915050565b600080fd5b600080fd5b7f4e487b7100000000000000000000000000000000000000000000000000000000600052604160045260246000fd5b6113b582610f8a565b810181811067ffffffffffffffff821117156113d4576113d361137d565b5b80604052505050565b60006113e761122c565b90506113f382826113ac565b919050565b600067ffffffffffffffff8211156114135761141261137d565b5b61141c82610f8a565b9050602081019050919050565b82818337600083830152505050565b600061144b611446846113f8565b6113dd565b90508281526020810184848401111561146757611466611378565b5b611472848285611429565b509392505050565b600082601f83011261148f5761148e611373565b5b813561149f848260208601611438565b91505092915050565b600080600080600060a086880312156114c4576114c3611236565b5b600086013567ffffffffffffffff8111156114e2576114e161123b565b5b6114ee8882890161147a565b955050602086013567ffffffffffffffff81111561150f5761150e61123b565b5b61151b8882890161147a565b945050604086013567ffffffffffffffff81111561153c5761153b61123b565b5b6115488882890161147a565b935050606086013567ffffffffffffffff8111156115695761156861123b565b5b6115758882890161147a565b925050608086013567ffffffffffffffff8111156115965761159561123b565b5b6115a28882890161147a565b9150509295509295909350565b7f4e487b7100000000000000000000000000000000000000000000000000000000600052602260045260246000fd5b600060028204905060018216806115f657607f821691505b6020821081141561160a576116096115af565b5b50919050565b7f4e487b7100000000000000000000000000000000000000000000000000000000600052601160045260246000fd5b600061164a82610f07565b915061165583610f07565b9250827fffffffffffffffffffffffffffffffffffffffffffffffffffffffffffffffff0382111561168a57611689611610565b5b828201905092915050565b60006116a082610f07565b91507fffffffffffffffffffffffffffffffffffffffffffffffffffffffffffffffff8214156116d3576116d2611610565b5b600182019050919050565b7f4e487b7100000000000000000000000000000000000000000000000000000000600052603260045260246000fd5b7f4f6e6c7920746865206f776e6572202063616e20646f2074686973206f70657260008201527f6174696f6e000000000000000000000000000000000000000000000000000000602082015250565b6000611769602583610f46565b91506117748261170d565b604082019050919050565b600060208201905081810360008301526117988161175c565b9050919050565b7f596f7572204e616d6520497320656d7074790000000000000000000000000000600082015250565b60006117d5601283610f46565b91506117e08261179f565b602082019050919050565b60006020820190508181036000830152611804816117c8565b9050919050565b7f596f75722075726c5369746520497320656d7074790000000000000000000000600082015250565b6000611841601583610f46565b915061184c8261180b565b602082019050919050565b6000602082019050818103600083015261187081611834565b9050919050565b7f596f757220696d61676520497320656d70747900000000000000000000000000600082015250565b60006118ad601383610f46565b91506118b882611877565b602082019050919050565b600060208201905081810360008301526118dc816118a0565b9050919050565b7f596f75722063617465676f727920497320656d70747900000000000000000000600082015250565b6000611919601683610f46565b9150611924826118e3565b602082019050919050565b600060208201905081810360008301526119488161190c565b9050919050565b6119588161109b565b82525050565b600060e082019050611973600083018a610f11565b81810360208301526119858189610f9b565b905081810360408301526119998188610f9b565b905081810360608301526119ad8187610f9b565b905081810360808301526119c18186610f9b565b90506119d060a083018561194f565b81810360c08301526119e28184610f9b565b90509897505050505050505056fea26469706673582212200b55933196f5511eb7b43d7c20cab4003f888d3f05515ea5825c260d338551c964736f6c63430008090033",
  "immutableReferences": {},
  "source": "// SPDX-License-Identifier: GPL-3.0\n\npragma solidity >=0.7.0 <0.9.0;\n\n\ncontract Certificates{\n\n  string public syatemName ;\n  uint public count = 0;\n\n  constructor() {\n    syatemName = \"Certificates System\";\n\n  }\n\n  struct Certificate {\n    uint id;\n    string name;\n    string urlSite;\n    string category;\n    string image;\n    address  payable owner;\n    string date;\n  }\n\n  event CreateCertificate (\n    uint id,\n    string name,\n    string urlSite,\n    string category,\n    string image,\n    address  payable owner,\n    string date\n  );\n\n\n\n\n  mapping (uint =>Certificate) private shopCertificates;\n\n  modifier onlOwner(uint256 id) {\n    require(\n      shopCertificates[id].owner != address(0) &&\n      shopCertificates[id].owner == msg.sender, \"Only the owner  can do this operation\"\n    );\n    _;\n  }\n\n  function createCertificate(string  memory name, string memory urlSite, string memory image,string memory category, string  memory date) public {\n\n    require(bytes(name).length > 0,\"Your Name Is empty\");\n    require(bytes(urlSite).length > 0,\"Your urlSite Is empty\");\n    require(bytes(image).length > 0,\"Your image Is empty\");\n\n    require(bytes(category).length > 0,\"Your category Is empty\");\n\n    count++;\n    shopCertificates[count]=Certificate(count,name,urlSite,category,image,payable (msg.sender),date);\n\n    emit CreateCertificate(count,name,urlSite,category,image,payable (msg.sender),date);\n\n\n  }\n\n  ///FETCH SINGLE JOB WITH VALIDATIONS\n  function fetchSingleItem(uint256 id)  public   onlOwner(id) view returns (Certificate memory)    {\n    return shopCertificates[id];\n  }\n\n  function getMyItemCreated() public view returns(Certificate[] memory){\n\n    //    require(Certificate.owner == msg.sender,\"only owner can get his cerifates\");\n\n    uint256 totalItemCount = count;\n    uint myItemCount=0;//10\n    uint myCurrentIndex =0;\n\n    for(uint i = 0;i<totalItemCount;i++){\n      if(shopCertificates[i+1].owner == msg.sender){\n        myItemCount+=1;\n\n      }\n    }\n    Certificate [] memory certificatetems = new Certificate[](myItemCount); //list[3]\n    for(uint i = 0;i<totalItemCount;i++){\n      if(shopCertificates[i+1].owner==msg.sender){      //[1,2,3,4,5]\n        uint currentId = i+1;\n        Certificate storage  currentItem = shopCertificates[currentId];\n        certificatetems[myCurrentIndex] = currentItem;\n        myCurrentIndex +=1;\n\n      }\n    }\n\n\n    return certificatetems;\n\n  }\n\n\n}\n\n",
  "sourcePath": "/Users/mrbebo/Documents/GitHub/Athr-Graduation-Project/contracts/Certificates.sol",
  "compiler": {
    "name": "solc",
    "version": "0.8.9+commit.e5eed63a.Emscripten.clang"
  },
  "schemaVersion": "3.4.3",
  "updatedAt": "2022-12-26T17:14:20.223Z",
  "networkType": "ethereum",
  "devdoc": {
    "kind": "dev",
    "methods": {},
    "version": 1
  },
  "userdoc": {
    "kind": "user",
    "methods": {
      "fetchSingleItem(uint256)": {
        "notice": "FETCH SINGLE JOB WITH VALIDATIONS"
      }
    },
    "version": 1
  }
}